{
  "_format": "hh-sol-artifact-1",
  "contractName": "Inheritance",
  "sourceName": "contracts/Inheritance.sol",
  "abi": [
    {
      "inputs": [],
      "stateMutability": "nonpayable",
      "type": "constructor"
    },
    {
      "inputs": [],
      "name": "claim",
      "outputs": [],
      "stateMutability": "nonpayable",
      "type": "function"
    },
    {
      "inputs": [],
      "name": "deposit",
      "outputs": [],
      "stateMutability": "payable",
      "type": "function"
    },
    {
      "inputs": [],
      "name": "duration",
      "outputs": [
        {
          "internalType": "uint256",
          "name": "",
          "type": "uint256"
        }
      ],
      "stateMutability": "view",
      "type": "function"
    },
    {
      "inputs": [],
      "name": "lastVisited",
      "outputs": [
        {
          "internalType": "uint256",
          "name": "",
          "type": "uint256"
        }
      ],
      "stateMutability": "view",
      "type": "function"
    },
    {
      "inputs": [],
      "name": "owner",
      "outputs": [
        {
          "internalType": "address",
          "name": "",
          "type": "address"
        }
      ],
      "stateMutability": "view",
      "type": "function"
    },
    {
      "inputs": [],
      "name": "ping",
      "outputs": [],
      "stateMutability": "nonpayable",
      "type": "function"
    },
    {
      "inputs": [],
      "name": "recipient",
      "outputs": [
        {
          "internalType": "address",
          "name": "",
          "type": "address"
        }
      ],
      "stateMutability": "view",
      "type": "function"
    },
    {
      "inputs": [
        {
          "internalType": "address payable",
          "name": "_recipient",
          "type": "address"
        },
        {
          "internalType": "uint256",
          "name": "_duration",
          "type": "uint256"
        }
      ],
      "name": "setWill",
      "outputs": [],
      "stateMutability": "nonpayable",
      "type": "function"
    }
  ],
  "bytecode": "0x6080604052348015600f57600080fd5b5033600260006101000a81548173ffffffffffffffffffffffffffffffffffffffff021916908373ffffffffffffffffffffffffffffffffffffffff16021790555042600081905550610970806100676000396000f3fe60806040526004361061007b5760003560e01c80638da5cb5b1161004e5780638da5cb5b14610104578063d0e30db01461012f578063d3485f0d14610139578063d65517f6146101625761007b565b80630fb5a6b4146100805780634e71d92d146100ab5780635c36b186146100c257806366d003ac146100d9575b600080fd5b34801561008c57600080fd5b5061009561018d565b6040516100a291906105f0565b60405180910390f35b3480156100b757600080fd5b506100c0610193565b005b3480156100ce57600080fd5b506100d76102df565b005b3480156100e557600080fd5b506100ee610378565b6040516100fb919061064c565b60405180910390f35b34801561011057600080fd5b5061011961039e565b604051610126919061064c565b60405180910390f35b6101376103c4565b005b34801561014557600080fd5b50610160600480360381019061015b91906106d6565b6104ee565b005b34801561016e57600080fd5b506101776105d1565b60405161018491906105f0565b60405180910390f35b60015481565b600360009054906101000a900473ffffffffffffffffffffffffffffffffffffffff1673ffffffffffffffffffffffffffffffffffffffff163373ffffffffffffffffffffffffffffffffffffffff1614610223576040517f08c379a000000000000000000000000000000000000000000000000000000000815260040161021a90610773565b60405180910390fd5b60015460005461023391906107c2565b4211610274576040517f08c379a000000000000000000000000000000000000000000000000000000000815260040161026b90610842565b60405180910390fd5b600360009054906101000a900473ffffffffffffffffffffffffffffffffffffffff1673ffffffffffffffffffffffffffffffffffffffff166108fc479081150290604051600060405180830381858888f193505050501580156102dc573d6000803e3d6000fd5b50565b600260009054906101000a900473ffffffffffffffffffffffffffffffffffffffff1673ffffffffffffffffffffffffffffffffffffffff163373ffffffffffffffffffffffffffffffffffffffff161461036f576040517f08c379a0000000000000000000000000000000000000000000000000000000008152600401610366906108ae565b60405180910390fd5b42600081905550565b600360009054906101000a900473ffffffffffffffffffffffffffffffffffffffff1681565b600260009054906101000a900473ffffffffffffffffffffffffffffffffffffffff1681565b600260009054906101000a900473ffffffffffffffffffffffffffffffffffffffff1673ffffffffffffffffffffffffffffffffffffffff163373ffffffffffffffffffffffffffffffffffffffff1614610454576040517f08c379a000000000000000000000000000000000000000000000000000000000815260040161044b906108ae565b60405180910390fd5b600073ffffffffffffffffffffffffffffffffffffffff16600360009054906101000a900473ffffffffffffffffffffffffffffffffffffffff1673ffffffffffffffffffffffffffffffffffffffff16036104e5576040517f08c379a00000000000000000000000000000000000000000000000000000000081526004016104dc9061091a565b60405180910390fd5b42600081905550565b600260009054906101000a900473ffffffffffffffffffffffffffffffffffffffff1673ffffffffffffffffffffffffffffffffffffffff163373ffffffffffffffffffffffffffffffffffffffff161461057e576040517f08c379a0000000000000000000000000000000000000000000000000000000008152600401610575906108ae565b60405180910390fd5b81600360006101000a81548173ffffffffffffffffffffffffffffffffffffffff021916908373ffffffffffffffffffffffffffffffffffffffff16021790555080600181905550426000819055505050565b60005481565b6000819050919050565b6105ea816105d7565b82525050565b600060208201905061060560008301846105e1565b92915050565b600073ffffffffffffffffffffffffffffffffffffffff82169050919050565b60006106368261060b565b9050919050565b6106468161062b565b82525050565b6000602082019050610661600083018461063d565b92915050565b600080fd5b60006106778261060b565b9050919050565b6106878161066c565b811461069257600080fd5b50565b6000813590506106a48161067e565b92915050565b6106b3816105d7565b81146106be57600080fd5b50565b6000813590506106d0816106aa565b92915050565b600080604083850312156106ed576106ec610667565b5b60006106fb85828601610695565b925050602061070c858286016106c1565b9150509250929050565b600082825260208201905092915050565b7f4e6f7420726563697069656e7400000000000000000000000000000000000000600082015250565b600061075d600d83610716565b915061076882610727565b602082019050919050565b6000602082019050818103600083015261078c81610750565b9050919050565b7f4e487b7100000000000000000000000000000000000000000000000000000000600052601160045260246000fd5b60006107cd826105d7565b91506107d8836105d7565b92508282019050808211156107f0576107ef610793565b5b92915050565b7f4f776e6572207374696c6c206163746976650000000000000000000000000000600082015250565b600061082c601283610716565b9150610837826107f6565b602082019050919050565b6000602082019050818103600083015261085b8161081f565b9050919050565b7f4e6f74206f776e65720000000000000000000000000000000000000000000000600082015250565b6000610898600983610716565b91506108a382610862565b602082019050919050565b600060208201905081810360008301526108c78161088b565b9050919050565b7f53657420726563697069656e7420666972737400000000000000000000000000600082015250565b6000610904601383610716565b915061090f826108ce565b602082019050919050565b60006020820190508181036000830152610933816108f7565b905091905056fea2646970667358221220c877c7585998ce14295125ef6bf684c8d803189012d86c468c365d4be3fcbcc664736f6c634300081c0033",
  "linkReferences": {},
  "deployedLinkReferences": {}
}